:020000040000FA
:030000000200C536
:030013000211E3F4
:03002B000211C9F6
:03005B0002118609
:10006B0002115C75821275831E74001200D7E49026
:10007B000200780379018002F0A3D8FCD9FA7A0246
:10008B007B029000F5780A790D8015E493A3AD827D
:10009B00AE838A828B83F0A3AA82AB838D828E83FD
:1000AB00D8E9D9E77582C575831A74001200D77524
:1000BB00825475831E74001200D775D0007581BFF2
:1000CB00751000751102759F00020079C09FF59F96
:1000DB00E473D09F22D083D082C09FE493C0E0749E
:1000EB000193C0E0740293F59F22BDF18080402004
:1000FB00100824C304081020408080000000000278
:10010B000202028242221A0600000000CCEC4040A0
:10011B004242424242FE42424242424040008080C2
:10012B004020100C0300030C102040808000C6F808
:10013B0020104C4754545454545454D404040000C9
:10014B0000000000000000000000000F3040F00035
:10015B00CEC21060028C0000FE9292929292FE0030
:10016B00000004047E01407E42427E427E42427E7B
:10017B004000B6C80000FC242424FC252624FC24C3
:10018B002424040040308F80844C55252525554C64
:10019B0080808000A3BA0000000000000000000077
:1001AB0000000000000000003636000000000000D8
:1001BB00000000000000A1E6060909E6F80C0402A5
:1001CB0002020202041E0000000000071F30204044
:1001DB004040404020100000CAAA1060028C00FE74
:1001EB00929292929292FE00000004047E01444887
:1001FB00507F40407F50484440000000000000000A
:10020B0000000000000000000000000000F80000EB
:10021B000000000000333000000000100C06100C32
:10022B000600000000000000000040C07840C078CD
:10023B004000043F04043F040400007088FC0830B5
:10024B000000001820FF211E0000F008F000E0184D
:10025B00000000211C031E211E0000F00888700006
:10026B0000001E2123241927211010160E00000058
:10027B0000000000000000000000000000E0180477
:10028B000200000000071820400000020418E000E4
:10029B0000000040201807000000404080F0804024
:1002AB0040000202010F01020200000000F00000FA
:1002BB0000000101011F010101000000000000000E
:1002CB00000080B070000000000000000000000083
:1002DB00000000010101010101010000000000000C
:1002EB0000000030300000000000000000008060C3
:1002FB001804006018060100000000E01008081048
:10030B00E000000F102020100F00001010F800006C
:10031B0000000020203F2020000000700808088803
:10032B0070000030282422213000003008888848D3
:10033B0030000018202020110E000000C02010F803
:10034B00000000070424243F240000F808888808D4
:10035B0008000019212020110E0000E010888818D9
:10036B000000000F112020110E0000380808C838BB
:10037B0008000000003F000000000070880808889B
:10038B007000001C222121221C0000E01008081024
:10039B00E0000000312222110F00000000C0C0005D
:1003AB000000000000303000000000000080000062
:1003BB000000000080600000000000008040201062
:1003CB00080000010204081020004040404040405B
:1003DB0040000404040404040400000810204080BE
:1003EB0000000020100804020100007048080808F3
:1003FB00F0000000003036010000C030C828E810C3
:10040B00E0000718272423140B000000C038E0007D
:10041B000000203C23020227382008F888888870C7
:10042B000000203F202020110E00C03008080808D3
:10043B003800071820202010080008F808080810BA
:10044B00E000203F202020100F0008F88888E808E3
:10045B001000203F20202320180008F88888E80887
:10046B001000203F200003000000C03008080838AF
:10047B00000007182020221E020008F808000008C0
:10048B00F808203F210101213F20000808F8080847
:10049B0000000020203F2020000000000808F80882
:1004AB000800C08080807F00000008F888C02818F2
:1004BB000800203F20012638200008F80800000023
:1004CB000000203F20202020300008F8F800F8F82A
:1004DB000800203F003F003F200008F830C0000814
:1004EB00F808203F200007183F00E010080808100C
:1004FB00E0000F10202020100F0008F80808080853
:10050B00F000203F210101010000E0100808081055
:10051B00E0000F18242438504F0008F8888888888A
:10052B007000203F2000030C302000708808080862
:10053B0038000038202121221C00180808F8080870
:10054B0018000000203F2000000008F808000008F9
:10055B00F808001F202020201F000878880000C802
:10056B003808000007380E010000F80800F80008F2
:10057B00F800033C0700073C0300081868808068FC
:10058B00180820302C03032C30200838C800C8383A
:10059B0008000000203F2000000010080808C838A1
:1005AB0008002038262120201800000000FE02023F
:1005BB0002000000007F40404000000C30C00000F3
:1005CB000000000000010638C00000020202FE001D
:1005DB000000004040407F000000000004020202C7
:1005EB0004000000000000000000000000000000FC
:1005FB0000008080808080808080000202040000E8
:10060B0000000000000000000000000080808080DF
:10061B0000000019242222223F2008F800808000CD
:10062B000000003F112020110E0000000080808090
:10063B000000000E11202020110000000080808897
:10064B00F800000E112020103F20000080808080D9
:10065B000000001F222222221300008080F08888D5
:10066B0088180020203F2020000000008080808020
:10067B008000006B94949493600008F80080808055
:10068B000000203F210000203F20008098980000B0
:10069B0000000020203F20200000000000809898E0
:1006AB00000000C08080807F000008F80000808080
:1006BB008000203F24022D302000000808F80000A5
:1006CB0000000020203F2020000080808080808060
:1006DB008000203F20003F20003F808000808080F2
:1006EB000000203F210000203F2000008080808000
:1006FB000000001F202020201F0080800080800031
:10070B00000080FFA12020110E00000000808080DF
:10071B008000000E112020A0FF8080808000808050
:10072B00800020203F21200001000000808080807D
:10073B0080000033242424241900008080E0808072
:10074B0000000000001F20200000808000000080BF
:10075B008000001F202020103F2080808000008020
:10076B00808000010E300806010080800080008030
:10077B0080800F300C030C300F00008080008080D5
:10078B0080000020312E0E31200080808000008000
:10079B00808080818E7018060100008080808080B0
:1007AB0080000021302C2221300000000000807CD2
:1007BB00020200000000003F404000000000FF006C
:1007CB00000000000000FF0000000002027C80001F
:1007DB0000000040403F0000000000060101020243
:1007EB0004040000000000000000303132333435C7
:1007FB003637383900616263646566676869414200
:10080B00434445007B7D5B5D282921402324250043
:10081B003D3D3D3D3D3D3D3D3D3D3E00BDF1CCECC7
:10082B00C6F8CEC2A3BA00CEC2B6C8A3BA32322023
:10083B00A1E600CAAAB6C8A3BA3330202500FFFF31
:10084B00FFFFFFFFFFFF7F7F7F7F7F7F3F0F030157
:10085B000100000060607FFFFFFFFFFFFFFFFFFF56
:10086B00FF0F03010000000000000000000000006B
:10087B000000000000000000C0E1FFFFFFFFFFFFD2
:10088B00FF800000000000000000000000000000DE
:10089B000000000000000000071F1FFFFFFFFFFF0D
:1008AB00FFFFFCF8E0C0808080808080C0E0E0E04B
:1008BB00C0808080808080C0E0F8FCFFFFFF0000DC
:1008CB00000000000000000000000000000000001D
:1008DB00000000000000000000000000000000000D
:1008EB000000FCFC70E0FF8CF0E0C0C0C0E0E0F06A
:1008FB00F0F0F8981C0C2C24041CF80000FEFF4CA4
:10090B004CF8F86040000000000000000000000000
:10091B000000008080C0C0C0C0C00000000000000C
:10092B0000000000000000000000000000000000BC
:10093B0000000000000000000000000000000000AC
:10094B00000000000000000000000000000000009C
:10095B0000000000000000000000000000006060CC
:10096B00F8F8FFBFFEFFFFFF8783BFBFFFFFFDE16F
:10097B00F1FFFFFFFC616232131D0F000003EF7AE2
:10098B007ECF9D1B0600000000000080C060180C8D
:10099B00C6E2797DB7F27139190000000000000042
:1009AB00000000000000000000000000000000003C
:1009BB00000000000000000000000000000000002C
:1009CB000E0E0ECE0E0E0E0E0EFE000000000E0EC4
:1009DB000ECE3ECE0E0E0EC0000000FE0000000933
:1009EB0097DE6DB7FF7FFFFF9F1F4F87C7E7179FEF
:1009FB009DF1E1C08000000000000000180F83E0B3
:100A0B00601DFFFE060E1C180000F087C1E0703859
:100A1B001F1E1F1D07030000000000000000000048
:100A2B00C0C0C0C0C0C0C0FEC0CEF0F0C0003030EF
:100A3B0030F03030000000FE00000000000000002D
:100A4B000000F0CFC0C0C0C0FEC1C0C00000303E2F
:100A5B003E31F0313E3E30FF000000FF0000000051
:100A6B0000030D3EDB6B371F7CFCC5C73F070386BE
:100A7B008CC0C0C1E36FEEFC38303090907BE9EC5A
:100A8B007CFCFFFEFEF7EF3F3FBDF7DF7EF8C000BB
:100A9B00000000000000000000000000000000004B
:100AAB00FFFFC1C1C10101FF0101F1F10100000014
:100ABB0000FF00000E0E0EFF0E0E0EFE00000038A3
:100ACB0038383939393939393901FFFF00003838AD
:100ADB003838FF38383800FF000000FF00000000F6
:100AEB000008FCFC1E3EFEFEE7E7E3C7CFD9F1F0A2
:100AFB00F90C60FFFFDB9B0801FFFFCCECEEEEC3B4
:100B0B00FF2D6C76373313FF7C96D6EB6BE9FFFF2B
:100B1B00F8F00000000000000000000000000000E2
:100B2B00FFFFC101FF000007F8060101C000C0C0B4
:100B3B00C03F38380000F807000000FF000000003D
:100B4B000000000000000038383807070000383874
:100B5B0038380706060606013838383F0000000013
:100B6B0000007FFF00007FFF000000000081C17DBF
:100B7B001F0387667C1C1E1F3F3B3337377E7C373A
:100B8B0034373F1B1B787F8784FEFE03070718381B
:100B9B0060C00F3CE0800000000000000000003847
:100BAB000707010601383806010638383F000101F6
:100BBB0001003838060601383838380700000000C5
:100BCB00000000000000000000000000000000001A
:100BDB00000000000000000000000000000000000A
:100BEB000000003F3F3F3F3FB08070B87F7F1B0C42
:100BFB000603010000000000000080808040406080
:100C0B00A0B098484864341F1B0F07000000000079
:100C1B0000000706193F7CF8C080000000000000B0
:100C2B0000000000000000000000000000000000B9
:100C3B0000000000000000000000000000000000A9
:100C4B000000000000000000000000000000000099
:100C5B000000000000000000000000000000000089
:100C6B00000000C0F0F8CCE61F0D030100000000EF
:100C7B000000000000000040783F3F3F3F060203AA
:100C8B000301000000000000000000000000000055
:100C9B00000000000000FCFFFFFFFF0E0000000043
:100CAB000000000000000000000000000000000039
:100CBB000000000000000000000000000000506F6A
:100CCB00776572206D6F6465206E6F7420666F752B
:100CDB006E643A2025640D0A004163746976696E6F
:100CEB00672E2E2E0D0A002D00250000000000FFA0
:100CFB00FF00001200E08A1B001200E0AF1B001285
:100D0B0000E0C61B001200E0DD1B001200E0111218
:100D1B00001200E02C12001200E06212001200E040
:100D2B002913001200E0F813001200E01014001257
:100D3B0000E0AA14001200E0D214001200E07D15AE
:100D4B00001200E05C1D001200E0C21D001200E06A
:100D5B00FE1B001200E0271C001200E0621E0012B6
:100D6B0000E0C11C001200E0EC1D001200E06E0060
:100D7B00001200E0121D001200E0681C001200E0DF
:100D8B00361E001200E09416001200E0E616001268
:100D9B0000E0971D00C008C3E096F50808A3E09695
:100DAB00420808A3E096420808A3E0964208A2D2A4
:100DBB0065D033E5087001D3D00822E4CFC0E0E45E
:100DCB00CEC0E0E4CDC0E0E4CCC0E075F020E62678
:100DDB00F608E633F608E633F608E633F618181885
:100DEB00EC33FCED33FDEE33FEEF33FFC3EC970931
:100DFB00ED9709EE9709EF97191919400FFFEC972B
:100E0B00FC09ED97FD09EE97FE191906D5F0BFEC1D
:100E1B00F709EDF709EEF709EFF7191919D0E0FC0F
:100E2B00D0E0FDD0E0FED0E0FF22E4C396F608E46C
:100E3B0096F608E496F608E496F622E056F608A332
:100E4B00E056F608A3E056F608A3E056F622E0F6C5
:100E5B0008A3E0F608A3E0F608A3E0F622E6F00804
:100E6B00A3E6F008A3E6F008A3E6F022E0F8A3E07F
:100E7B00F9A3E0FAA3E0FB22CAC0E0E6F0A308DA8C
:100E8B00FAD0E0FA22CAC0E0E0A3C582CCC582C585
:100E9B0083CDC583F0A3C582CCC582C583CDC58365
:100EAB00DAE6D0E0CA22C3E498F8E499F9120EF21C
:100EBB008026C3E49AFAE49BFBE920E7E9120EF2E1
:100ECB00E498F8E499F922C3E498F8E499F9120E3E
:100EDB00F2E498F8E499F9C3E49AFAE49BFB22EB69
:100EEB0020E7CFE920E7E0B90010BB0008E88AF063
:100EFB0084F8AAF022E4FBC8FA22EB70227B10C81C
:100F0B0033C8C933C9335007C39AC3DBF280069A7F
:100F1B0050012ADBEAC833F4C8C933F4C9FA227585
:100F2B00F008E4C833C8C933C933C99AC99B500404
:100F3B00C92AC93BD5F0ECFBC833F4C8E4C9FA2283
:100F4B00251010AF08F510400C15118008F5104056
:100F5B00021511D2AF2200C0D0251010AF08F5102A
:100F6B00500C05118008F51050020511D2AFD0D0EE
:100F7B00222510F58210AF08F510400C15118008D2
:100F8B00F51040021511D2AF851183222510F58281
:100F9B00E43511F583222510F8E43511F9222510DB
:100FAB00FCE43511FD22E4732510C582C0E0E51188
:100FBB0034FFC583C0E0E510C3958224F810AF0859
:100FCB008583118582108008858311858210D2AFAD
:100FDB00CEF0A3E520F0A37808E608F0A3DEFAEF45
:100FEB00F0A3E58124FAF8E608F0A3E608F0A3E6FF
:100FFB0008F0A30808E608F0A3E608F0A31581158E
:10100B0081D0E0FED0E0F8158115811581E8C0E0B4
:10101B00EEC0E022851183851082E0A3FEE0A3F5EC
:10102B00207808E0A3F608DFFAE0A3FFE0A3C0E016
:10103B00E0A3C0E0E0A3C0E0E0A3C0E0E0A3C0E019
:10104B0010AF0885821085831180088582108583F7
:10105B0011D2AFD083D0820200DDC0D02510C58263
:10106B00C0E0E51134FFC583C0E0E510C3958224D1
:10107B00F310AF0885831185821080088583118555
:10108B008210D2AFC8F0A3E9F0A3EAF0A3EBF0A370
:10109B007908E709F0A3D8FAECF0A3EDF0A3EEF092
:1010AB00A3EFF0A3D0E0F0A3D0E0F0A3D0E0F0A347
:1010BB00E520F0A3E5F0F0A322851183851082E0F3
:1010CB00C0E0A3E0F9A3E0FAA3E0FBA37808E0F605
:1010DB0008A3DFFAE0FCA3E0FDA3E0FEA3E0FFA37F
:1010EB00E0C0E0A3E0C0E0A3E0F5D0A3E0F520A3CF
:1010FB00E0A3F5F010AF0885831185821080088579
:10110B008311858210D2AFD082D083D0E0F8D0E0AB
:10111B0032740280027401C0E0F404120F7CD0E040
:10112B00120E832274028000CCC0E0EDC0E0E5100B
:10113B00C39CCCAD1150011D10AF068C108D1180CE
:10114B00068C108D11D2AF120E90D0E0FDD0E0FCCA
:10115B0022C0E074F21210657A0A7B00120D58A2BD
:10116B0081400EA2844004D2F08002C2F0A2F09221
:10117B0084758900C2C57F010210C4C0E0C0D0C015
:10118B0082C083C0F0900200E02401F0A3E03400A1
:10119B00F0900200E064897004A3E064097014907D
:1011AB0002007400F0A37400F0D2F0A28430F001BE
:1011BB00B39284D0F0D083D082D0D0D0E032C0E0D4
:1011CB0074F2121065C2C77904120D4C7AF17B0DC3
:1011DB00120D7C7F010210C4C0E074F21210657412
:1011EB00FF120F4BC28BE5C1C0E0851082851183C6
:1011FB00D0E0F07901AA10AB11120D527401120F4D
:10120B00617F010210C4C082C083120CFE120D3428
:10121B00120D1C7A007900120D3AD083D082020095
:10122B00DD74F7120FB37F00800D7900120D0A0EDB
:10123B00EEC3948040F40FEFC39408501574B02F95
:10124B00F9120D047901120D047910120D047E00B0
:10125B0080DE7F0102101F74F4120FB3890A8A0813
:10126B00EC4D6007E50AC39404400302132475F0A8
:10127B0002E50AA4F509ECFEEDFF80228E828F8336
:10128B00E0F9E509FC7D00E508FA7B00120D4074DE
:10129B00082508F5088E828F83A3AE82AF838E82DA
:1012AB008F83E060748E828F83E0C39480501CE543
:1012BB0008F87900E82408F8500109C3E89481E99B
:1012CB009400A2D265D03340B3804EE508F8790084
:1012DB00E82410F8500109C3E89481E99400A2D2E4
:1012EB0065D03350348E828F83A3E0F50B780B12CD
:1012FB0011208E828F83E0F9E509FC7D00E508FA69
:10130B007B00120D467401120F6174102508F5084D
:10131B00EE2402FE50880F80857F0402101F74F1AB
:10132B00120FB374FE120F4BE9FF8A088B0E8C0D54
:10133B00EFC394805007E508C3944140030213EEBA
:10134B008510828511837400F0A37400F08F09EF70
:10135B00250E24FFFE75F008E50884FCE508FA7BF2
:10136B0000E50DF87900EA28F8EB39F9E824FFF8E5
:10137B00E934FFF97A087B00120EEAE8F50A8C0BC8
:10138B00804E851082851183E0F8A3E0F974111269
:10139B000F97E028FAA3E0398A82F583E0F9120D62
:1013AB000A851082851183E02401F0A3E03400F05C
:1013BB00050CE50CFA7B00EEF87900E82401F850F7
:1013CB000109C3EA98EB99A2D265D03340B4050B5F
:1013DB00E50BC3950A500CEFFAA90B120D3A8509D0
:1013EB000C80CF7402120F617F0702101FC082C0E6
:1013FB0083C2907A3C7B007901120D5ED290D08330
:10140B00D0820200DDC082C083120D2E79AE120D88
:10141B00047900120D047910120D047940120D0499
:10142B007981120D0479CF120D0479A1120D047973
:10143B00C8120D0479A6120D0479A8120D04793F78
:10144B00120D0479D3120D047900120D0479D51203
:10145B000D047980120D0479D9120D0479F1120D56
:10146B000479DA120D047912120D0479DB120D04D2
:10147B007940120D047920120D047902120D0479B2
:10148B008D120D047914120D0479A4120D0479A692
:10149B00120D0479AF120D04D083D0820200DD74DB
:1014AB00F7120FB3E9FEEAFF74B02EF9120D04EF39
:1014BB00C4540F4410F9120D04740F5F4401F91258
:1014CB000D047F0102101F74F2120FB38A0A8B0BEB
:1014DB00ECFEEDFF890DE50DC39421402AE50DF8D7
:1014EB007900E824E0F508E934FFF509E50875F023
:1014FB0010A4C508A8F075F000A428F875F010E545
:10150B0009A428F5098006750800750900AA0AEEDA
:10151B00F9120D3A750C00801EE50CF87900E50800
:10152B0028F8E50939F9741228F582740339F58323
:10153B00E0F9120D0A050CE50CC3940840DBAA0A6E
:10154B00EE2401F9120D3A7E00801CEEF87900E5CD
:10155B000828F8E50939F9741A28F582740339F566
:10156B0083E0F9120D0A0EEEC3940840DE7F0602EB
:10157B00101F74F2120FB3EAFEEBFF8C088D098972
:10158B000C750A00750B00740E120F97E0FA8008A9
:10159B00050AE50A7002050BC3E50A9408E50B94EE
:1015AB0000400302168FA80AA90BE875F022A4C805
:1015BB00ABF075F000A42BFB75F022E9A42BF974AA
:1015CB000228F582740239F583E0650C70C2A80A13
:1015DB00A90BE875F022A4C8ABF075F000A42BFBA7
:1015EB0075F022E9A42BF9740328F582740239F5FE
:1015FB0083E06A709BEEFAA908120D3A750D008014
:10160B0035A80AA90BE875F022A4C8AAF075F0005A
:10161B00A42AFA75F022E9A42AF9E50DFA7B0074E5
:10162B00042AFA74023BFBEA28F582EB39F583E0D6
:10163B00F9120D0A050DE50DC3941040C4EEFAE541
:10164B00082401F9120D3A7E008033A80AA90BE891
:10165B0075F022A4C8AAF075F000A42AFA75F0223E
:10166B00E9A42AF9EEFA7B0074142AFA74023BFB04
:10167B00EA28F582EB39F583E0F9120D0A0EEEC379
:10168B00941040C77F0602101F74F2120FB38A0A20
:10169B008B0BECFAEDFB740E120F97E0FEA3E0FF41
:1016AB007410120F97E0F508A3E080228E828F83CF
:1016BB00E0F9850A82850B83120FB18E828F83A38B
:1016CB00AE82AF83E50824FFF508E50934FFF50981
:1016DB00E508450970D67F0602101F74F0120FB390
:1016EB0074E5120F4B7401120F97EAF0A3EBF0ECB9
:1016FB00FEEDFF803D750A01750B00780A12111C77
:10170B00742D120F9712112FEEFCEFFD7405120FB3
:10171B0097E0FAA3E0FB120D8E7404120F618A0A94
:10172B008B0BAE0AAF0B742B120F97E508F0A3E5EA
:10173B0009F0742B120F97121A70700E7A007B003F
:10174B00741B120F617F0802101F742B120F97E08E
:10175B002401F508A3E03400F5097425687096851B
:10176B000882850983E0851082851183F0742B1222
:10177B000F97121ABB742B120F97E8F0A3E9121AEA
:10178B006724DB7003021A5324CD70030219DD2486
:10179B00F5602F14700302182724FB607F24FA7066
:1017AB00030219DD1470030219F424FD7003021AED
:1017BB001B24FE70030219DD24FD70030219DD02E8
:1017CB00173D742D120F97121A83C0E07405120F78
:1017DB0097D0E0F0742D120F97121AB2120F9712C6
:1017EB001AA0750801750900780812111C740712EC
:1017FB000FA188088909780812111CEEFCEFFD7403
:10180B0005120F97E0FAA3E0FB120D8E7404120F72
:10181B00618A088B09AE08AF0902173D742D120FB0
:10182B0097121A83F508A3E0F5093395E0F50AF54D
:10183B000B742D120F97121AB2120F97121AA09047
:10184B000E037808120DA04034750C01750D00784D
:10185B000C12111C750CFF750D0D780C12111CEE72
:10186B00FCEFFD7405120F97E0FAA3E0FB120D8E4F
:10187B007404120F618A0C8B0DAE0CAF0D851082A8
:10188B008511837464121A67646F7009740C120FDC
:10189B009774088017E0442064786009740C120F69
:1018AB0097740A8007740C120F977410F0A3E4F06E
:1018BB00A3F0A3F07403120F97740BF0A3E4F0746E
:1018CB0006120F977808120E68851082851183E037
:1018DB0064647023900E037808120DA040197406EF
:1018EB00120F977808120E597808120E35740612DB
:1018FB000F977808120E687403120F97E024FFFA03
:10190B00A3E034FFFB7403120F97EAF0A3EBF07420
:10191B0006120F97780C120E59740C120F97780849
:10192B00120E59780C7908120DC6E5082430F8C34D
:10193B00943A400B851082851183E024AF28F8740C
:10194B0010120F97E5822AFAE5833BFB740A120FFC
:10195B0097EAF0A3EBF0E8C0E0740A120F97121AA3
:10196B0076D0E0F07406120F97780C120E59740CA7
:10197B00120F977808120E59780C7908120DC6744D
:10198B0006120F97780C120E687406120F97120E30
:10199B0077E8494A4B60177403120F97C3E0940121
:1019AB00A3E09400A2D265D0334003021902740362
:1019BB00120F97E0F8A3E0F9740BC398F508E499BC
:1019CB00F509780812111C740C120F9712112F02C3
:1019DB001806742D120F97121A8F120F97121AB234
:1019EB00120F97121AA5021890742D120F97121A34
:1019FB008F120F97121AB2120F97121AA0900E078E
:101A0B007808120E4685108285118374780218901F
:101A1B00742D120F97121A70A3E0F988828983E054
:101A2B00F508A3E0F509E82402F8500109742D121A
:101A3B000F97121AA0AA08AB09120D888A0A8B0BF2
:101A4B00780A12111C021801750801750900780833
:101A5B0012111C75080175090E021801F085108210
:101A6B00851183E022121A76E0F822121A7A22E00C
:101A7B00F8A3E0F583888222121A8722121A7A12AF
:101A8B001A7AE022121A87F508A3E0F509E4F50AA1
:101A9B00F50B742D22121AA5F022E0FAA3E0F583C0
:101AAB008A82E8F0A3E922121A76121ABB742D224D
:101ABB00E02402F8A3E03400F92253C6BFE59EA24E
:101ACB00E640FA53C6B8120D167C027D097A0079EE
:101ADB0000120D227C0D7D097A007901120D227CFA
:101AEB001C7D097A007902120D227C287D097A006F
:101AFB007903120D227AA07B0F7901120D5E120D64
:101B0B001C7C347D097A007900120D227C3F7D0903
:101B1B007A1E7901120D227C4B7D097A1E790212F5
:101B2B000D227AA07B0F7901120D5E120D1C750828
:101B3B0056750909780812111C7C207B207A1E79B6
:101B4B001E120D287402120F617AA07B0F790112FD
:101B5B000D5E120D1C7508D6750909780812111C3B
:101B6B007C407B807A007900120D287402120F6181
:101B7B007AA07B0F7901120D5E120D1C021AD44351
:101B8B00FE2053F4DFD29543FE4053F4BF43FF01D5
:101B9B0053F5FED2A043FE1053F4EF43FE0153F472
:101BAB00FE0200DD74F7120FB3E9FEC2A0C294EE81
:101BBB00F9120D10D2A07F0102101F74F7120FB390
:101BCB00E9FEC2A0D294EEF9120D10D2A07F010251
:101BDB00101F78008009D296E9C333F9D29508E833
:101BEB00C39408500BC295E9A2E740EAC29680E87D
:101BFB000200DD7C007D00801308E8700109C3E85A
:101C0B009417E9940240F20CEC70010DC3EC9AEDC1
:101C1B009B50067800790080E50200DD74F6120F08
:101C2B00B3E97008750817750902800675082E75DB
:101C3B0009047E007F00C3EE9AEF9B501B7C007D56
:101C4B0000C3EC9508ED950950070CEC70F30D8073
:101C5B00F00EEE70E10F80DE7F0202101F74F612A1
:101C6B000FB374FF120F4BEAFEEBFF74FF6E7003A2
:101C7B0074FF6F6033EE851082851183F075080158
:101C8B00750900780812111C7402120FA97A017BD6
:101C9B0000120D707402120F618A08740165084BF3
:101CAB007006EEFAEFFB80047AFF7BFF7401120FD4
:101CBB00617F0202101FC082C08374F8120F4B8524
:101CCB001082851183EAF0A3EBF07402120F97ECEC
:101CDB00F0A3EDF07408120F97E0F8A3E0F9740489
:101CEB00120F97E8F0A3E9F0AA10AB11790B120DC4
:101CFB00647406120F97E0FAA3E0FB7408120F61ED
:101D0B00D083D0820200DD74F6120FB374FE120F73
:101D1B004B740C120FA1851082851183E8F0A3E997
:101D2B00F0A810A91188088909780812111C8A08D3
:101D3B008B09780812111C7C017D007A9A7B0D129D
:101D4B000D947404120F617402120F617F02021062
:101D5B001F74F6120FB3E9FEEEC394054019EEF5AE
:101D6B0008750900780812111C7AD67B0D120D7CB0
:101D7B007402120F61801074046E700575870080F9
:101D8B0006EE42BE7587017F0202101F74F2120F1E
:101D9B00B38A088B09890AAE0AEEFA7B00120D8210
:101DAB008A0CEE650C4B7006AA08AB0980047A000E
:101DBB007B007F0602101FC082C08378008016E86C
:101DCB00FC7D00EA2CF582EB3DF583E0F5C1A2E941
:101DDB0050FCC2E908E8C39940E5D083D0820200E9
:101DEB00DDC082C083EC4D70067A007B00801185CC
:101DFB00108285118312112F120D6A7402120F615A
:101E0B00D083D0820200DD74F7120FB374FE120F71
:101E1B004BEAFEEBFF851082851183EEF0A3EFF00A
:101E2B00AA10AB117901120D6480EAC082C0838ABB
:101E3B00828B838001A3E070FCE582C39AFAE58371
:101E4B009BFBD083D0820200DDC082C083120D7653
:0A1E5B00D083D0820200DD0200DD1A
:04000005000000C532
:00000001FF
